{
  "_format": "hh-sol-artifact-1",
  "contractName": "Genesis",
  "sourceName": "src/contracts/Genesis.sol",
  "abi": [
    {
      "inputs": [
        {
          "internalType": "uint256",
          "name": "_projectTax",
          "type": "uint256"
        }
      ],
      "stateMutability": "nonpayable",
      "type": "constructor"
    },
    {
      "anonymous": false,
      "inputs": [
        {
          "indexed": false,
          "internalType": "uint256",
          "name": "id",
          "type": "uint256"
        },
        {
          "indexed": false,
          "internalType": "string",
          "name": "actionType",
          "type": "string"
        },
        {
          "indexed": true,
          "internalType": "address",
          "name": "executor",
          "type": "address"
        },
        {
          "indexed": false,
          "internalType": "uint256",
          "name": "timestamp",
          "type": "uint256"
        }
      ],
      "name": "Action",
      "type": "event"
    },
    {
      "inputs": [
        {
          "internalType": "uint256",
          "name": "id",
          "type": "uint256"
        }
      ],
      "name": "backProject",
      "outputs": [
        {
          "internalType": "bool",
          "name": "",
          "type": "bool"
        }
      ],
      "stateMutability": "payable",
      "type": "function"
    },
    {
      "inputs": [],
      "name": "balance",
      "outputs": [
        {
          "internalType": "uint256",
          "name": "",
          "type": "uint256"
        }
      ],
      "stateMutability": "view",
      "type": "function"
    },
    {
      "inputs": [
        {
          "internalType": "uint256",
          "name": "_taxPct",
          "type": "uint256"
        }
      ],
      "name": "changeTax",
      "outputs": [],
      "stateMutability": "nonpayable",
      "type": "function"
    },
    {
      "inputs": [
        {
          "internalType": "string",
          "name": "title",
          "type": "string"
        },
        {
          "internalType": "string",
          "name": "description",
          "type": "string"
        },
        {
          "internalType": "string",
          "name": "imageURL",
          "type": "string"
        },
        {
          "internalType": "uint256",
          "name": "cost",
          "type": "uint256"
        },
        {
          "internalType": "uint256",
          "name": "expiresAt",
          "type": "uint256"
        }
      ],
      "name": "createProject",
      "outputs": [
        {
          "internalType": "bool",
          "name": "",
          "type": "bool"
        }
      ],
      "stateMutability": "nonpayable",
      "type": "function"
    },
    {
      "inputs": [
        {
          "internalType": "uint256",
          "name": "id",
          "type": "uint256"
        }
      ],
      "name": "deleteProject",
      "outputs": [
        {
          "internalType": "bool",
          "name": "",
          "type": "bool"
        }
      ],
      "stateMutability": "nonpayable",
      "type": "function"
    },
    {
      "inputs": [
        {
          "internalType": "uint256",
          "name": "id",
          "type": "uint256"
        }
      ],
      "name": "getBackers",
      "outputs": [
        {
          "components": [
            {
              "internalType": "address",
              "name": "owner",
              "type": "address"
            },
            {
              "internalType": "uint256",
              "name": "contribution",
              "type": "uint256"
            },
            {
              "internalType": "uint256",
              "name": "timestamp",
              "type": "uint256"
            },
            {
              "internalType": "bool",
              "name": "refunded",
              "type": "bool"
            }
          ],
          "internalType": "struct Genesis.backerStruct[]",
          "name": "",
          "type": "tuple[]"
        }
      ],
      "stateMutability": "view",
      "type": "function"
    },
    {
      "inputs": [
        {
          "internalType": "uint256",
          "name": "id",
          "type": "uint256"
        }
      ],
      "name": "getProject",
      "outputs": [
        {
          "components": [
            {
              "internalType": "uint256",
              "name": "id",
              "type": "uint256"
            },
            {
              "internalType": "address",
              "name": "owner",
              "type": "address"
            },
            {
              "internalType": "string",
              "name": "title",
              "type": "string"
            },
            {
              "internalType": "string",
              "name": "description",
              "type": "string"
            },
            {
              "internalType": "string",
              "name": "imageURL",
              "type": "string"
            },
            {
              "internalType": "uint256",
              "name": "cost",
              "type": "uint256"
            },
            {
              "internalType": "uint256",
              "name": "raised",
              "type": "uint256"
            },
            {
              "internalType": "uint256",
              "name": "timestamp",
              "type": "uint256"
            },
            {
              "internalType": "uint256",
              "name": "expiresAt",
              "type": "uint256"
            },
            {
              "internalType": "uint256",
              "name": "backers",
              "type": "uint256"
            },
            {
              "internalType": "enum Genesis.statusEnum",
              "name": "status",
              "type": "uint8"
            }
          ],
          "internalType": "struct Genesis.projectStruct",
          "name": "",
          "type": "tuple"
        }
      ],
      "stateMutability": "view",
      "type": "function"
    },
    {
      "inputs": [],
      "name": "getProjects",
      "outputs": [
        {
          "components": [
            {
              "internalType": "uint256",
              "name": "id",
              "type": "uint256"
            },
            {
              "internalType": "address",
              "name": "owner",
              "type": "address"
            },
            {
              "internalType": "string",
              "name": "title",
              "type": "string"
            },
            {
              "internalType": "string",
              "name": "description",
              "type": "string"
            },
            {
              "internalType": "string",
              "name": "imageURL",
              "type": "string"
            },
            {
              "internalType": "uint256",
              "name": "cost",
              "type": "uint256"
            },
            {
              "internalType": "uint256",
              "name": "raised",
              "type": "uint256"
            },
            {
              "internalType": "uint256",
              "name": "timestamp",
              "type": "uint256"
            },
            {
              "internalType": "uint256",
              "name": "expiresAt",
              "type": "uint256"
            },
            {
              "internalType": "uint256",
              "name": "backers",
              "type": "uint256"
            },
            {
              "internalType": "enum Genesis.statusEnum",
              "name": "status",
              "type": "uint8"
            }
          ],
          "internalType": "struct Genesis.projectStruct[]",
          "name": "",
          "type": "tuple[]"
        }
      ],
      "stateMutability": "view",
      "type": "function"
    },
    {
      "inputs": [],
      "name": "owner",
      "outputs": [
        {
          "internalType": "address",
          "name": "",
          "type": "address"
        }
      ],
      "stateMutability": "view",
      "type": "function"
    },
    {
      "inputs": [
        {
          "internalType": "uint256",
          "name": "id",
          "type": "uint256"
        }
      ],
      "name": "payOutProject",
      "outputs": [
        {
          "internalType": "bool",
          "name": "",
          "type": "bool"
        }
      ],
      "stateMutability": "nonpayable",
      "type": "function"
    },
    {
      "inputs": [],
      "name": "projectCount",
      "outputs": [
        {
          "internalType": "uint256",
          "name": "",
          "type": "uint256"
        }
      ],
      "stateMutability": "view",
      "type": "function"
    },
    {
      "inputs": [
        {
          "internalType": "uint256",
          "name": "",
          "type": "uint256"
        }
      ],
      "name": "projectExist",
      "outputs": [
        {
          "internalType": "bool",
          "name": "",
          "type": "bool"
        }
      ],
      "stateMutability": "view",
      "type": "function"
    },
    {
      "inputs": [],
      "name": "projectTax",
      "outputs": [
        {
          "internalType": "uint256",
          "name": "",
          "type": "uint256"
        }
      ],
      "stateMutability": "view",
      "type": "function"
    },
    {
      "inputs": [
        {
          "internalType": "uint256",
          "name": "id",
          "type": "uint256"
        }
      ],
      "name": "requestRefund",
      "outputs": [
        {
          "internalType": "bool",
          "name": "",
          "type": "bool"
        }
      ],
      "stateMutability": "nonpayable",
      "type": "function"
    },
    {
      "inputs": [],
      "name": "stats",
      "outputs": [
        {
          "internalType": "uint256",
          "name": "totalProjects",
          "type": "uint256"
        },
        {
          "internalType": "uint256",
          "name": "totalBacking",
          "type": "uint256"
        },
        {
          "internalType": "uint256",
          "name": "totalDonations",
          "type": "uint256"
        }
      ],
      "stateMutability": "view",
      "type": "function"
    },
    {
      "inputs": [
        {
          "internalType": "uint256",
          "name": "id",
          "type": "uint256"
        },
        {
          "internalType": "string",
          "name": "title",
          "type": "string"
        },
        {
          "internalType": "string",
          "name": "description",
          "type": "string"
        },
        {
          "internalType": "string",
          "name": "imageURL",
          "type": "string"
        },
        {
          "internalType": "uint256",
          "name": "expiresAt",
          "type": "uint256"
        }
      ],
      "name": "updateProject",
      "outputs": [
        {
          "internalType": "bool",
          "name": "",
          "type": "bool"
        }
      ],
      "stateMutability": "nonpayable",
      "type": "function"
    }
  ],
  "bytecode": "0x608060405234801561001057600080fd5b5060405161246d38038061246d83398101604081905261002f91610049565b600080546001600160a01b03191633179055600155610062565b60006020828403121561005b57600080fd5b5051919050565b6123fc806100716000396000f3fe6080604052600436106100f35760003560e01c8063a4b2409e1161008a578063d24cd3ec11610059578063d24cd3ec146102b1578063d80528ae146102c7578063dcc6012814610301578063f0f3f2c81461032357600080fd5b8063a4b2409e1461022e578063b531dcba1461024e578063b69ef8a81461026e578063c9168b721461028457600080fd5b80638593054b116100c65780638593054b146101935780638da5cb5b146101c35780639a3fa8c7146101fb5780639f39a1941461021b57600080fd5b8063056c29ee146100f857806336fbad261461012d5780633e45c8af146101515780634cd0cb2814610173575b600080fd5b34801561010457600080fd5b50610118610113366004611f05565b610350565b60405190151581526020015b60405180910390f35b34801561013957600080fd5b5061014360025481565b604051908152602001610124565b34801561015d57600080fd5b5061017161016c366004611f9f565b6107b9565b005b34801561017f57600080fd5b5061011861018e366004611f9f565b61080e565b34801561019f57600080fd5b506101186101ae366004611f9f565b600a6020526000908152604090205460ff1681565b3480156101cf57600080fd5b506000546101e3906001600160a01b031681565b6040516001600160a01b039091168152602001610124565b34801561020757600080fd5b50610118610216366004611fb8565b61098a565b610118610229366004611f9f565b610c01565b34801561023a57600080fd5b50610118610249366004611f9f565b6111c6565b34801561025a57600080fd5b50610118610269366004611f9f565b611300565b34801561027a57600080fd5b5061014360035481565b34801561029057600080fd5b506102a461029f366004611f9f565b6113ef565b6040516101249190612052565b3480156102bd57600080fd5b5061014360015481565b3480156102d357600080fd5b506004546005546006546102e692919083565b60408051938452602084019290925290820152606001610124565b34801561030d57600080fd5b50610316611491565b604051610124919061220b565b34801561032f57600080fd5b5061034361033e366004611f9f565b61172c565b604051610124919061226d565b60008086511161039f5760405162461bcd60e51b81526020600482015260156024820152745469746c652063616e6e6f7420626520656d70747960581b60448201526064015b60405180910390fd5b60008551116103f05760405162461bcd60e51b815260206004820152601b60248201527f4465736372697074696f6e2063616e6e6f7420626520656d70747900000000006044820152606401610396565b600084511161043c5760405162461bcd60e51b8152602060048201526018602482015277496d61676555524c2063616e6e6f7420626520656d70747960401b6044820152606401610396565b600083116104825760405162461bcd60e51b8152602060048201526013602482015272436f73742063616e6e6f74206265207a65726f60681b6044820152606401610396565b61048a611d56565b600254815233602080830191825260408301898152606084018990526080840188905260a084018790524260e085015261010084018690526007805460018101825560009190915284517fa66cc928b5edb82af9bd49922954155ab7b0942694bea4ce44661d9a8736c688600b90920291820190815593517fa66cc928b5edb82af9bd49922954155ab7b0942694bea4ce44661d9a8736c689820180546001600160a01b0319166001600160a01b0390921691909117905590518051859493610577937fa66cc928b5edb82af9bd49922954155ab7b0942694bea4ce44661d9a8736c68a01920190611dc9565b5060608201518051610593916003840191602090910190611dc9565b50608082015180516105af916004840191602090910190611dc9565b5060a0820151600582015560c0820151600682015560e0820151600782015561010082015160088201556101208201516009820155610140820151600a8201805460ff191660018360048111156106085761060861210e565b021790555050600280546000908152600a602090815260408083208054600160ff1990911681179091553384526008835281842080548083018255908552938390208751600b909502019384558683015190840180546001600160a01b0319166001600160a01b039092169190911790558501518051869550929361069593908501929190910190611dc9565b50606082015180516106b1916003840191602090910190611dc9565b50608082015180516106cd916004840191602090910190611dc9565b5060a0820151600582015560c0820151600682015560e0820151600782015561010082015160088201556101208201516009820155610140820151600a8201805460ff191660018360048111156107265761072661210e565b02179055505050600160046000016000828254610743919061229d565b90915550506002805433916000805160206123a78339815191529190600061076a836122b5565b9091555060408051918252606060208301819052600f908301526e141493d29150d50810d49150551151608a1b6080830152429082015260a00160405180910390a25060019695505050505050565b6000546001600160a01b031633146108095760405162461bcd60e51b81526020600482015260136024820152724f776e6572207265736572766564206f6e6c7960681b6044820152606401610396565b600155565b60008060078381548110610824576108246122d0565b60009182526020909120600a600b90920201015460ff16600481111561084c5761084c61210e565b146108945760405162461bcd60e51b8152602060048201526018602482015277141c9bda9958dd081b9bc81b1bdb99d95c881bdc195b995960421b6044820152606401610396565b600782815481106108a7576108a76122d0565b60009182526020909120600b90910201600101546001600160a01b031633146108e25760405162461bcd60e51b8152600401610396906122e6565b6003600783815481106108f7576108f76122d0565b60009182526020909120600a600b9092020101805460ff191660018360048111156109245761092461210e565b021790555061093282611a0c565b60408051838152606060208201819052600f908201526e141493d29150d50811115311551151608a1b60808201524281830152905133916000805160206123a7833981519152919081900360a00190a2506001919050565b60006007868154811061099f5761099f6122d0565b60009182526020909120600b90910201600101546001600160a01b031633146109da5760405162461bcd60e51b8152600401610396906122e6565b6000855111610a235760405162461bcd60e51b81526020600482015260156024820152745469746c652063616e6e6f7420626520656d70747960581b6044820152606401610396565b6000845111610a745760405162461bcd60e51b815260206004820152601b60248201527f4465736372697074696f6e2063616e6e6f7420626520656d70747900000000006044820152606401610396565b6000835111610ac05760405162461bcd60e51b8152602060048201526018602482015277496d61676555524c2063616e6e6f7420626520656d70747960401b6044820152606401610396565b8460078781548110610ad457610ad46122d0565b90600052602060002090600b02016002019080519060200190610af8929190611dc9565b508360078781548110610b0d57610b0d6122d0565b90600052602060002090600b02016003019080519060200190610b31929190611dc9565b508260078781548110610b4657610b466122d0565b90600052602060002090600b02016004019080519060200190610b6a929190611dc9565b508160078781548110610b7f57610b7f6122d0565b90600052602060002090600b020160080181905550336001600160a01b03166000805160206123a78339815191528742604051610bed929190918252606060208301819052600f908301526e141493d29150d50815541110551151608a1b6080830152604082015260a00190565b60405180910390a250600195945050505050565b6000803411610c525760405162461bcd60e51b815260206004820152601f60248201527f4574686572206d7573742062652067726561746572207468616e207a65726f006044820152606401610396565b6000828152600a602052604090205460ff16610ca45760405162461bcd60e51b8152602060048201526011602482015270141c9bda9958dd081b9bdd08199bdd5b99607a1b6044820152606401610396565b600060078381548110610cb957610cb96122d0565b60009182526020909120600a600b90920201015460ff166004811115610ce157610ce161210e565b14610d295760405162461bcd60e51b8152602060048201526018602482015277141c9bda9958dd081b9bc81b1bdb99d95c881bdc195b995960421b6044820152606401610396565b600060078381548110610d3e57610d3e6122d0565b90600052602060002090600b0201600501543460078581548110610d6457610d646122d0565b90600052602060002090600b020160060154610d80919061229d565b1115610ee05760078381548110610d9957610d996122d0565b90600052602060002090600b0201600501543460078581548110610dbf57610dbf6122d0565b90600052602060002090600b020160060154610ddb919061229d565b610de59190612313565b604051909150600090339083908381818185875af1925050503d8060008114610e2a576040519150601f19603f3d011682016040523d82523d6000602084013e610e2f565b606091505b5050905080610e725760405162461bcd60e51b815260206004820152600f60248201526e151c985b9cd9995c8819985a5b1959608a1b6044820152606401610396565b60405162461bcd60e51b815260206004820152603f60248201527f456e746572656420616d6f756e7420657863656564732072657175697265642060448201527f616d6f756e742e2045786365737320616d6f756e7420726566756e6465642e006064820152608401610396565b600160046001016000828254610ef6919061229d565b909155505060068054349190600090610f1090849061229d565b925050819055503460078481548110610f2b57610f2b6122d0565b90600052602060002090600b02016006016000828254610f4b919061229d565b92505081905550600160078481548110610f6757610f676122d0565b90600052602060002090600b02016009016000828254610f87919061229d565b9091555050600083815260096020908152604080832081516080808201845233808352348387019081524284870181815260608087018b8152885460018082018b55998d529b8b902097516004909c0290970180546001600160a01b0319166001600160a01b03909c169b909b178b559251968a01969096559451600289015592516003909701805460ff1916971515979097179096558351898152948501829052600e918501919091526d141493d29150d508109050d2d15160921b90840152908201526000805160206123a78339815191529060a00160405180910390a26007838154811061107a5761107a6122d0565b90600052602060002090600b0201600501546007848154811061109f5761109f6122d0565b90600052602060002090600b0201600601541061114b576001600784815481106110cb576110cb6122d0565b60009182526020909120600a600b9092020101805460ff191660018360048111156110f8576110f861210e565b021790555060078381548110611110576111106122d0565b90600052602060002090600b02016006015460036000828254611133919061229d565b90915550611142905083611b7a565b50600192915050565b6007838154811061115e5761115e6122d0565b90600052602060002090600b02016008015442106111425760026007848154811061118b5761118b6122d0565b60009182526020909120600a600b9092020101805460ff191660018360048111156111b8576111b861210e565b021790555061114283611a0c565b60006002600783815481106111dd576111dd6122d0565b60009182526020909120600a600b90920201015460ff1660048111156112055761120561210e565b14158061124d5750600360078381548110611222576112226122d0565b60009182526020909120600a600b90920201015460ff16600481111561124a5761124a61210e565b14155b6112a85760405162461bcd60e51b815260206004820152602660248201527f50726f6a656374206e6f74206d61726b656420617320726576657274206f722060448201526564656c65746560d01b6064820152608401610396565b6002600783815481106112bd576112bd6122d0565b60009182526020909120600a600b9092020101805460ff191660018360048111156112ea576112ea61210e565b02179055506112f882611a0c565b506001919050565b6000600160078381548110611317576113176122d0565b60009182526020909120600a600b90920201015460ff16600481111561133f5761133f61210e565b146113835760405162461bcd60e51b8152602060048201526014602482015273141c9bda9958dd081b9bdd081054141493d5915160621b6044820152606401610396565b60078281548110611396576113966122d0565b60009182526020909120600b90910201600101546001600160a01b03163314806113ca57506000546001600160a01b031633145b6113e65760405162461bcd60e51b8152600401610396906122e6565b6112f882611b7a565b606060096000838152602001908152602001600020805480602002602001604051908101604052809291908181526020016000905b82821015611486576000848152602090819020604080516080810182526004860290920180546001600160a01b03168352600180820154848601526002820154928401929092526003015460ff16151560608301529083529092019101611424565b505050509050919050565b60606007805480602002602001604051908101604052809291908181526020016000905b828210156117235760008481526020908190206040805161016081018252600b86029092018054835260018101546001600160a01b031693830193909352600283018054929392918401916115099061232a565b80601f01602080910402602001604051908101604052809291908181526020018280546115359061232a565b80156115825780601f1061155757610100808354040283529160200191611582565b820191906000526020600020905b81548152906001019060200180831161156557829003601f168201915b5050505050815260200160038201805461159b9061232a565b80601f01602080910402602001604051908101604052809291908181526020018280546115c79061232a565b80156116145780601f106115e957610100808354040283529160200191611614565b820191906000526020600020905b8154815290600101906020018083116115f757829003601f168201915b5050505050815260200160048201805461162d9061232a565b80601f01602080910402602001604051908101604052809291908181526020018280546116599061232a565b80156116a65780601f1061167b576101008083540402835291602001916116a6565b820191906000526020600020905b81548152906001019060200180831161168957829003601f168201915b505050918352505060058201546020820152600682015460408201526007820154606082015260088201546080820152600982015460a0820152600a82015460c09091019060ff1660048111156116ff576116ff61210e565b60048111156117105761171061210e565b81525050815260200190600101906114b5565b50505050905090565b611734611d56565b6000828152600a602052604090205460ff166117865760405162461bcd60e51b8152602060048201526011602482015270141c9bda9958dd081b9bdd08199bdd5b99607a1b6044820152606401610396565b60078281548110611799576117996122d0565b90600052602060002090600b020160405180610160016040529081600082015481526020016001820160009054906101000a90046001600160a01b03166001600160a01b03166001600160a01b031681526020016002820180546117fc9061232a565b80601f01602080910402602001604051908101604052809291908181526020018280546118289061232a565b80156118755780601f1061184a57610100808354040283529160200191611875565b820191906000526020600020905b81548152906001019060200180831161185857829003601f168201915b5050505050815260200160038201805461188e9061232a565b80601f01602080910402602001604051908101604052809291908181526020018280546118ba9061232a565b80156119075780601f106118dc57610100808354040283529160200191611907565b820191906000526020600020905b8154815290600101906020018083116118ea57829003601f168201915b505050505081526020016004820180546119209061232a565b80601f016020809104026020016040519081016040528092919081815260200182805461194c9061232a565b80156119995780601f1061196e57610100808354040283529160200191611999565b820191906000526020600020905b81548152906001019060200180831161197c57829003601f168201915b505050918352505060058201546020820152600682015460408201526007820154606082015260088201546080820152600982015460a0820152600a82015460c09091019060ff1660048111156119f2576119f261210e565b6004811115611a0357611a0361210e565b90525092915050565b60005b600082815260096020526040902054811015611b76576000828152600960205260408120805483908110611a4557611a456122d0565b6000918252602080832060049092029091015485835260099091526040822080546001600160a01b0390921693509084908110611a8457611a846122d0565b90600052602060002090600402016001015490506001600960008681526020019081526020016000208481548110611abe57611abe6122d0565b906000526020600020906004020160030160006101000a81548160ff02191690831515021790555042600960008681526020019081526020016000208481548110611b0b57611b0b6122d0565b906000526020600020906004020160020181905550611b2a8282611cf1565b600160046001016000828254611b409190612313565b909155505060068054829190600090611b5a908490612313565b9250508190555050508080611b6e906122b5565b915050611a0f565b5050565b600060078281548110611b8f57611b8f6122d0565b90600052602060002090600b02016006015490506000606460015483611bb59190612365565b611bbf9190612384565b9050600460078481548110611bd657611bd66122d0565b60009182526020909120600a600b9092020101805460ff19166001836004811115611c0357611c0361210e565b0217905550611c4a60078481548110611c1e57611c1e6122d0565b600091825260209091206001600b9092020101546001600160a01b0316611c458385612313565b611cf1565b600054611c60906001600160a01b031682611cf1565b60078381548110611c7357611c736122d0565b90600052602060002090600b02016006015460036000828254611c969190612313565b9091555050604080518481526060602082018190526010908201526f141493d29150d508141052510813d55560821b60808201524281830152905133916000805160206123a7833981519152919081900360a00190a2505050565b6000826001600160a01b03168260405160006040518083038185875af1925050503d8060008114611d3e576040519150601f19603f3d011682016040523d82523d6000602084013e611d43565b606091505b5050905080611d5157600080fd5b505050565b6040518061016001604052806000815260200160006001600160a01b03168152602001606081526020016060815260200160608152602001600081526020016000815260200160008152602001600081526020016000815260200160006004811115611dc457611dc461210e565b905290565b828054611dd59061232a565b90600052602060002090601f016020900481019282611df75760008555611e3d565b82601f10611e1057805160ff1916838001178555611e3d565b82800160010185558215611e3d579182015b82811115611e3d578251825591602001919060010190611e22565b50611e49929150611e4d565b5090565b5b80821115611e495760008155600101611e4e565b634e487b7160e01b600052604160045260246000fd5b600082601f830112611e8957600080fd5b813567ffffffffffffffff80821115611ea457611ea4611e62565b604051601f8301601f19908116603f01168101908282118183101715611ecc57611ecc611e62565b81604052838152866020858801011115611ee557600080fd5b836020870160208301376000602085830101528094505050505092915050565b600080600080600060a08688031215611f1d57600080fd5b853567ffffffffffffffff80821115611f3557600080fd5b611f4189838a01611e78565b96506020880135915080821115611f5757600080fd5b611f6389838a01611e78565b95506040880135915080821115611f7957600080fd5b50611f8688828901611e78565b9598949750949560608101359550608001359392505050565b600060208284031215611fb157600080fd5b5035919050565b600080600080600060a08688031215611fd057600080fd5b85359450602086013567ffffffffffffffff80821115611fef57600080fd5b611ffb89838a01611e78565b9550604088013591508082111561201157600080fd5b61201d89838a01611e78565b9450606088013591508082111561203357600080fd5b5061204088828901611e78565b95989497509295608001359392505050565b602080825282518282018190526000919060409081850190868401855b828110156120b457815180516001600160a01b03168552868101518786015285810151868601526060908101511515908501526080909301929085019060010161206f565b5091979650505050505050565b6000815180845260005b818110156120e7576020818501810151868301820152016120cb565b818111156120f9576000602083870101525b50601f01601f19169290920160200192915050565b634e487b7160e01b600052602160045260246000fd5b6005811061214257634e487b7160e01b600052602160045260246000fd5b9052565b600061016082518452602083015161216960208601826001600160a01b03169052565b506040830151816040860152612181828601826120c1565b9150506060830151848203606086015261219b82826120c1565b915050608083015184820360808601526121b582826120c1565b91505060a083015160a085015260c083015160c085015260e083015160e08501526101008084015181860152506101208084015181860152506101408084015161220182870182612124565b5090949350505050565b6000602080830181845280855180835260408601915060408160051b870101925083870160005b8281101561226057603f1988860301845261224e858351612146565b94509285019290850190600101612232565b5092979650505050505050565b6020815260006122806020830184612146565b9392505050565b634e487b7160e01b600052601160045260246000fd5b600082198211156122b0576122b0612287565b500190565b60006000198214156122c9576122c9612287565b5060010190565b634e487b7160e01b600052603260045260246000fd5b602080825260139082015272556e617574686f72697a656420456e7469747960681b604082015260600190565b60008282101561232557612325612287565b500390565b600181811c9082168061233e57607f821691505b6020821081141561235f57634e487b7160e01b600052602260045260246000fd5b50919050565b600081600019048311821515161561237f5761237f612287565b500290565b6000826123a157634e487b7160e01b600052601260045260246000fd5b50049056feaee8e5d3bbb2f71a951b5632cee20f7ac487b9f8ab4f66a236f7694b13af7c6aa2646970667358221220bf09384c83ac6d4ac0faff6eeda8fbb05a227c72d07b2463ac2eae9e1810e03b64736f6c634300080b0033",
  "linkReferences": {},
  "deployedLinkReferences": {}
}